:020000021000EC
:10200000C80A0020B5280100BF920200BF9202005A
:1020100051A20200BF920200BF920200BF920200D2
:10202000BF920200BF920200BF920200BF92020064
:10203000BF920200E433030003A30200BF92020038
:10204000BF920200BF920200BF920200BF92020044
:10205000BF920200BF920200BF920200BF92020034
:10206000BF920200BF920200BF920200BF92020024
:1020700055620100BF920200BF920200BF920200AF
:10208000BF920200BF920200BF920200BF92020004
:10209000BF92020059330100BF920200BF920200BA
:1020A000BF920200652F0100452F0100BF92020080
:1020B000BF9202007D6E0200BF920200D57802003E
:1020C000630E03005F0E0300B1700200790E03007F
:1020D000670E0300A57802006B0E0300157902005D
:1020E000E94E0200AD50020081790200BF92020069
:1020F000BF920200BF920200BF920200BF92020094
:10210000BF920200BF920200BF920200BF92020083
:10211000BF920200BF920200BF920200BF92020073
:10212000BF920200BF920200BF920200BF92020063
:10213000BF920200BF920200317401002DAA02007A
:1021400082B030BF074BD3F8F030DB0704D5002353
:102150000193019B052B01DD02B07047019B013308
:10216000F6E700BF00ED00E0000000000000000006
:10217000000000000000000000000000000000005F
:1021800007B588B10BA3D3E900230949C1E90223AC
:10219000CDE900234FF0FF324FF0FF3308691EF006
:1021A00035F803B05DF804FB00220023EDE700BF23
:1021B000E80A00200DD50155200000000348044B1B
:1021C000834202D0034B03B118477047F822002026
:1021D000F822002000000000064B0749C91A8910A8
:1021E00048BF0131491003D0044B0BB101481847D7
:1021F000704700BFF8220020F822002000000000F5
:1022000010B5064C237843B9FFF7D8FF044B13B140
:102210000448AFF300800123237010BD4A1F002043
:1022200000000000CC7C030008B5054B1BB105493C
:102230000548AFF30080BDE80840FFF7CDBF00BF01
:1022400000000000400D0020CC7C0300A3F5803A84
:10225000704700BF174B002B08BF134B9D46FFF77D
:10226000F5FF00218B460F461348144A121A18F046
:102270004CFC0E4B002B00D098470D4B002B00D090
:1022800098470020002104000D000D48002802D0CE
:102290000C48AFF3008005F047FD2000290018F03E
:1022A000C7FB05F087FB00BF00000800000000002E
:1022B00000000000C80A0020C80A002040200020BA
:1022C0000000000000000000044B834205D1044BD5
:1022D0001B7813B1C8B20EF04BBA7047580D0020EE
:1022E0004B1F002030B5002503685A4A23F47F4372
:1022F00023F0070385B0934204460295ADF80C50D5
:1023000000F0828002F1C06202F5802293420DD07B
:10231000514A934240F09C80504B1B78002B00F0B8
:10232000978005B0BDE8304017F0E7BFB0F8053042
:10233000212B40F08D80FF2304A91A4611E90300E8
:1023400016F046FF012814BF41F2FC15434B05F07F
:10235000FC0208BF1870212120790BF00DFE054604
:1023600018B33F4C3F49206817F033FA3E492068C4
:1023700017F02FFA16F033FF16F032FF3B4B3C4AB2
:1023800000933C495923206817F023FA3A492B4619
:102390003A4A206817F01DFA284600F0BFF838497D
:1023A000206817F016FA00BEFDE736490090237941
:1023B000354A0968354800F00DF90546002847D030
:1023C000274C2849206817F004FA2749206817F09D
:1023D00000FA16F004FF16F003FF244B244A009382
:1023E00024496223206817F0F4F923492B46234A35
:1023F000206817F0EEF9284600F090F82049206890
:1024000017F0E7F900BEFDE7B0F80530B7EE047A43
:1024100007EE903AF8EE677AB0F8073067EE877A01
:10242000013307EE103AB8EEC77A67EE877AB1EE5D
:10243000047A67EE877AFAFE677AFCEEE77A17EE9F
:10244000903AB3F57A7F38BF4FF47A730D4A136030
:1024500005B030BDA0000602A00006014B1F002001
:10246000900D00207237030020330300BD330300BA
:1024700025330300883303009733030094330300AC
:10248000AC3303008C200020C9220100580D00202D
:102490000B4B02461B7883B10A4B1B78834234BF37
:1024A00000200120084B1B7833B1084B1B781341E7
:1024B00013F0010F08BF002070470120F2E700BFB2
:1024C000CE220020CD2200204C1F0020CC22002054
:1024D000012208B5074B1A700022074B1A7004221C
:1024E000064B1A701F22064B1A7002F0EBFE054BCA
:1024F000186008BDCE2200204C1F0020CD220020F5
:10250000CC220020900D0020024B0349186817F0E0
:1025100060B900BF900D0020DD33030070B50C4C96
:102520000C490646206817F054F902F0CBFE054628
:10253000206802F0BBFE3046FFF7E6FF284602F0B7
:10254000B5FE20680449BDE8704017F042B900BFED
:10255000900D0020DF330300E133030038B505465A
:1025600020F092FC00230B4A14685CB1AC4206D107
:10257000A96A6BB1996220F082FC012007E0234632
:10258000A46AF2E7002DF3D020F079FC204638BD94
:102590001160F0E7940D002010B50446B0B120F0B2
:1025A0002BFA2046FFF7DAFF10B194F82C300BB964
:1025B000002010BD064C2368002BF9D020F064FCED
:1025C0002368013B236020F05AFCF1E72220F0E76A
:1025D000980D00202DE9F04385B0054691469846B8
:1025E0000E469DF8307009B9002F5CD12846FFF7E0
:1025F000D3FF0446002836D185F82C00686303F029
:10260000E7FD864233D920F08BFA2146844640F21A
:10261000E7304FF47A720023E6FB0C0105F03AF83C
:102620004FF0FF32002305F035F82B46E8861146BF
:102630002846CDE900441D4A20F0CDFD044690B95E
:10264000C5E9089885F82D702E6320F01DFC184A06
:10265000136833B31A469B6A002BFBD195620023A3
:10266000AB6220F00CFC204605B0BDE8F08347B11A
:102670002B4631462846CDE900440C4A20F0A2FA08
:10268000DCE7304603A920F051FA04460028EAD1DD
:102690002B462846CDE90077044A039920F077FDC0
:1026A000CCE71560DBE72124DDE700BFB52601009C
:1026B000940D002091F82C3013B50C4683B98B8E05
:1026C000CA8E93420ED243B9CDE9003320460B4661
:1026D000124A4FF0FF3120F03EFDA38E0133A38656
:1026E00002B010BD52B191F82D3093B10123009387
:1026F000D1E908232046096BFFF76CFF012384F81A
:102700002C30074B1A6801321EBF1A6801321A605A
:10271000E6E7084620F070F9F0E700BFB5260100B3
:10272000980D00202DE9F041154E336833B34FF07A
:102730000008144F20F0A8FB05463C6824B9284641
:10274000BDE8F04120F09BBB94F82C30A3B1336876
:1027500084F82C8013B13368013B336094F82D303A
:1027600013B92046FFF7FAFE284620F088FBD4E98B
:10277000083120469847DDE7A46ADFE7BDE8F0812D
:10278000980D0020940D0020034B1B68002B14BFF4
:1027900004200120704700BF980D0020024B1868EC
:1027A000B0FA80F040097047980D002008B5034842
:1027B00020F051FCBDE8084018F0ECB8BC34030030
:1027C000014820F048BC00BFBC34030007B5082016
:1027D00016F0F3FD0222064B6846CDE9002316F001
:1027E00002FD082003B05DF804EB16F0F1BD00BF58
:1027F000006A181000239B6AB3F5903F03D2196852
:10280000064A914203D0002303708360704701227F
:1028100002709A689B694260F7E700BF07B0CD5E1F
:1028200000239B6A10B5B3F5903F11D219680A4A8C
:1028300091420DD1094C227812F0FD0F01D00020F9
:1028400010BDDB6998470028FAD101232370F6E711
:102850004FF48170F4E700BF07B0CD5E4D1F00203C
:10286000024B034A1A6016F064BF00BF000000204C
:1028700002020FF0BFF34F8F0549064BCA6802F4FE
:10288000E0621343CB60BFF34F8F00BFFDE700BF93
:1028900000ED00E00400FA050348044A0449121A56
:1028A000921016F00DBD00BF4021010080210100F3
:1028B0004020002008B5154B83F30A8800F030F85B
:1028C000FFF7EAFF124B13498B4212D30020124B41
:1028D00012498B4218D3FFF7BDFC186850F822400C
:1028E000586840F82240013298688242F5D30C3390
:1028F000EAE70022F8E71C6844F8220001325C682D
:10290000A242F8D30833E4E70022F8E708000020E9
:10291000D47C0300E07C0300E07C0300E07C030047
:102920004FF40041134B144A70B59A60D3F88820D5
:10293000124D42F47002C3F88820114A05F5005484
:1029400091664FF0FF3222664FF6DF726266022216
:10295000C3F8D020BFF34F8FBFF36F8F4FF44036D3
:10296000032002F095FC0320E66002F075FC2E6166
:1029700070BD00BF00ED00E00020010000800044B9
:1029800000900050014B1860704700BF9420002059
:10299000054B1860054B1B6F03F00703032B01D198
:1029A0001FF07AB9704700BF9C20002000800050C3
:1029B00030B5056887B0AB8804461848ADF80C30D0
:1029C00020F049FB0022012103A800F0FDF80DF1E1
:1029D0000B0103A800F0B2F99DF80B3083F001035E
:1029E0002B70AB79022B15D14FF0FF330022CDE9CC
:1029F000043304A90A4B009403A800F04FFA049B87
:102A0000009401330CBF04220122054B05A903A841
:102A100000F0C2F9002007B030BD00BFBC34030095
:102A2000FF920200002307B52948019320F013FB11
:102A30004FF44073012204216846ADF8003000F0E5
:102A4000C3F80122234B0520C3F8442401A920F038
:102A5000FDFA002839D1204BD3F8F02042F00102D2
:102A6000C3F8F020D3F8FC2042F08072C3F8FC20B9
:102A70001A4AA3F55D431A60019B194A03F5D52351
:102A800003F2FC43B3FBF2F3164A013B136102234A
:102A9000C2F8F0304FF48073C2F804334FF0604353
:102AA000114AC3F8B02F114AC3F8802ED3F8002E74
:102AB00042F48072C3F8002EFF2283F82020D3F85E
:102AC000002E22F48072C3F8002E03B05DF804FBE0
:102AD000BC34030000D0035000ED00E0FF030040D1
:102AE000F8590D00000004E055CEACC50900010006
:102AF0004FF06043D3F8802E30B5D20715D50124AE
:102B00000B4D8440D5F8FC2042F08072C5F8FC20C3
:102B1000D3F8002E2243C3F8002E53F82020002AB9
:102B2000F0D003F82010002030BD1120FCE700BFDA
:102B300000ED00E02DE9F04104460C254FF00108BE
:102B4000124E0CB314F001000BD0002024F001044D
:102B500005FB00625768002FF3D09168C0B2B847F8
:102B6000EFE72246013020284FEA520201D0D30776
:102B7000F8D508FA00F20F2824EA0204E8D9103840
:102B800005FB0062B432E5E7BDE8F0819C0D002052
:102B900008B50C4820F05FFA192002F06BFB28B151
:102BA000192002F075FB192002F056FB1A2002F0E2
:102BB00061FB28B11A2002F06BFB1A2002F04CFBDB
:102BC000002008BDBC3403002DE9F0410E46174635
:102BD000054610B30F2922D80378DBB1013BDBB2E5
:102BE000022B1CD8104AD35C6A78D340DB0716D579
:102BF0000E4BD3F81043A4B920F046F980463A466C
:102C00002846314601F0ECFE404620F038F92046D7
:102C1000BDE8F08140F2FF13E6E72224F7E7212424
:102C2000F5E70224F3E700BF3434030000C003508B
:102C300010B5044608B30378E3B1013BDBB2022BC5
:102C40001DD8104AD35C6278D340DB0717D520F03B
:102C50001BF90122617823788A4030214B4341F2ED
:102C6000100103F1A04303F570335A5020F007F927
:102C7000002010BD40F2FF13E5E72220F9E72120F4
:102C8000F7E700BF3434030010B5044608B30378F7
:102C9000E3B1013BDBB2022B1DD8104AD35C627852
:102CA000D340DB0717D520F0EFF8012261782378B5
:102CB0008A4030214B4342F2100103F1A04303F557
:102CC00070335A5020F0DBF8002010BD40F2FF13A3
:102CD000E5E72220F9E72120F7E700BF34340300BD
:102CE00038B50D46044610B309B30378E3B1013B90
:102CF000DBB2022B1DD8104AD35C6278D340DB07CD
:102D000017D520F0C1F830222378534303F1A043B4
:102D100003F570331B696278D34003F001032B7015
:102D200020F0ADF8002038BD40F2FF13E5E7222087
:102D3000F9E72120F7E700BF3434030038B50D462A
:102D4000044610B309B30378E3B1013BDBB2022BB5
:102D50001DD8104AD35C6278D340DB0717D520F02A
:102D600093F830222378534303F1A04303F57033E3
:102D70005B696278D34003F001032B7020F07FF889
:102D8000002038BD40F2FF13E5E72220F9E72120BB
:102D9000F7E700BF343403002DE9F0410D46164635
:102DA00098460446002851D000294FD00378002BC4
:102DB00042D05A1ED2B2022A03D9FF2B07D02120BB
:102DC00042E0234B9B5C4278D340DA07F7D5022ED2
:102DD00001D9042EF3D120F057F823780746FF2BB2
:102DE00005D032462046296801F040FE28602B6855
:102DF000013309D12378FF2B06D1164B6078D3F825
:102E0000241416F0F7FB286029684B1C18D00C23FB
:102E1000114A03FB0122069BC2F8048093602378C9
:102E2000FF2B04D001230D4A8B40C2F824343846CE
:102E300020F025F8002007E040F2FF134278C3E7B6
:102E4000384620F01CF82D20BDE8F0812220FBE759
:102E50003434030000C003509C0D002000D0035008
:102E60000F2810B5044613D820F00EF80123094AA4
:102E7000A340C2F82034C2F824340C22064B02FBD3
:102E800004330024C3E901441FF0F9FF204610BDBC
:102E90002120FCE700E003509C0D00202DE9F041CB
:102EA0000D4690461F460446002842D0002940D0D7
:102EB0000378002B33D0591EC9B2022903D9FF2B46
:102EC00007D0212033E01C4B42785B5CD340DA070B
:102ED000F7D51FF0D9FF23780646FF2B05D04246D1
:102EE0002046296801F048FE28602A68531C1AD041
:102EF0000C23124903FB0211069BC1F8B870C1F8FC
:102F0000BC302378FF2B05D00123103293400C4AAC
:102F1000C2F8243430461FF0B2FF002007E040F230
:102F2000FF134278D2E730461FF0A9FF2D20BDE8FD
:102F3000F0812220FBE700BF343403009C0D002009
:102F400000D0035008B501F031FD054B00F05530BD
:102F500020F05020C3F82004BDE80840FFF7EABD88
:102F600000E0035008B501F021FD054B00F0AA3048
:102F700020F0A020C3F82004BDE80840FFF7DABD28
:102F800000E0035013B504460A4820F064F8A27824
:102F90000421B2FA82F2237852098DF80430637862
:102FA0000DEB01008DF80530FFF70EFE002002B09A
:102FB00010BD00BFBC3403002DE9F04F9A46564BBC
:102FC00085B01B7806460F461546DDF83C909DF807
:102FD00044B0DDF85080002B00F09780072A00F203
:102FE00096800E9B002B00F09280B9F1000F00F04C
:102FF0008E80129BB3F5006F00F38980012803D106
:10300000109B002B00F08380444B03EB05131B7BCC
:10301000002B7ED0424C10220021684617F075FD2F
:1030200004EB45141022A7BB3946204617F06DFD6E
:1030300043F210036380BBF1000F03D1E37843F048
:103040000303E370364A0E9B02EB451CCCE9019367
:10305000129B6901581E9DF84C30C0F30A0003F022
:1030600003039B0643EA001E53582E48012E00EA34
:1030700003004EEA0003CDF800A0535017D0B8F17A
:10308000000F2ED19CF8023068F304138CF8023044
:1030900027E00021204617F038FD4FF44473638089
:1030A000BBF1000FCED1E37843F03003C9E713231F
:1030B0000CF1100ECCF80C309CE80F008EE80F00DD
:1030C0006FF00301DCF81C20109B61F39F02012FBD
:1030D000CCF81C20CCF8143003D1CCF81890CCF8E4
:1030E000043000270D4A290102EB051342F8018044
:1030F000159A28465A60694622469F605E7301F021
:1031000045FB384605B0BDE8F08F0748FAE70748A9
:10311000F8E70748F6E700BF4E1F00200410002024
:10312000040F00200F80FFF3028000F0018000F008
:10313000078000F038B5124B05461B78DBB1E0B1D3
:103140001FF0A2FE0F4A00231146147B54B92B60D6
:1031500001251A0101EB03131D738C501FF08FFE24
:10316000204638BD0133082B02F11002EDD11FF0CB
:1031700086FE0548F5E70548F3E70548F1E700BF97
:103180004E1F002004100020048000F0028000F098
:10319000018000F038B51FF077FE002305460B4A8A
:1031A000147B6CB90133082B02F11002F8D101F045
:1031B00099FA074B28461C701FF061FE204603E079
:1031C00028461FF05CFE034838BD00BF04100020F5
:1031D0004E1F0020058000F00D4B10B51B780446F3
:1031E00093B1072812D81FF04FFE0A4B03EB0413CC
:1031F0001A7B2AB100241C731FF041FE204610BD2B
:103200001FF03DFE0448FAE70448F8E70448F6E7F3
:103210004E1F002004100020068000F0028000F005
:10322000018000F0154B13B51868002301908DF84C
:1032300004301FF029FE124B1C7824B11FF01FFE32
:10324000104802B010BD01221A701FF018FE0E4B7C
:1032500001A81C731C7783F82C4083F83C4083F84A
:103260004C4083F85C4083F86C4083F87C40082332
:103270008DF8073001F05AFA2046E2E737340300B0
:103280004E1F0020038000F004100020F8B50D4D03
:103290002D7885B1072810DC0B4D060105EB0014D5
:1032A000277B67B1AB510025069BA560636001F0E9
:1032B0006DFA2846F8BD0548FCE70548FAE70548D9
:1032C000F8E700BF4E1F002004100020028000F02D
:1032D000018000F0078000F00A4A08B512785AB160
:1032E00007280BD8084A02EB00131B7B43B10021CF
:1032F00001F00EFA002008BD0448FCE70448FAE794
:103300000448F8E74E1F002004100020028000F05F
:10331000018000F0078000F00A4A08B512785AB11F
:1033200007280BD8084A02EB00131B7B43B101218D
:1033300001F0EEF9002008BD0448FCE70448FAE774
:103340000448F8E74E1F002004100020028000F01F
:10335000018000F0078000F0184B2DE9F0411F6D4F
:103360005B6D1F4000D5FEE701260025144CDFF8F9
:103370005880374218D02368C8F85060A3B1A168BC
:10338000284601316268A1609847637B012B0BD10D
:1033900050B90C4B03EB45131A7B60F341021A73CF
:1033A0001A7F60F341021A770135082D4FEA46066D
:1033B00004F11004DDD1BDE8F08100BF000004502D
:1033C00004100020040F002000200450044BD3F808
:1033D0008420D206FBD4D3F88400C0F38110704758
:1033E0000040005038B5184B0546D3F824010C4670
:1033F00000F00700062823D8DFE800F0040A121ABC
:103400001E0E1600012305B1286004B1236038BDEB
:103410001EF01CFC0523F6E71EF018FC0623F2E75D
:103420001EF054FC0323EEE71EF050FC0423EAE7F1
:103430001EF048FC0223E6E71EF04EFC0723E2E7FD
:1034400000231846DFE700BF0080005038B5104B5E
:103450000546D3F800310C4603F00303022B0BD0D2
:10346000032B0DD0012B0FD11EF030FC032305B12F
:10347000286004B1236038BD1EF032FC0823F6E753
:103480001EF02AFC0723F2E701230020EFE700BF2C
:103490000080005038B5104B0546D3F820310C465B
:1034A00003F00303022B0BD0032B0DD0012B0FD104
:1034B0001EF0CCFB052305B1286004B1236038BDA4
:1034C0001EF004FC0323F6E71EF0FCFB0223F2E7E8
:1034D00001230020EFE700BF0080005038B5104BFB
:1034E0000546D3F840310C4603F00303022B0BD002
:1034F000032B0DD0012B0FD11FF0CCFC092305B1FC
:10350000286004B1236038BD1EF0EAFB0823F6E70B
:103510001FF0C3FC0B23F2E701230020EFE700BFFD
:103520000080005038B5104B0546D3F860310C468A
:1035300003F00303022B0BD0032B0DD0012B0FD173
:103540001FF0A8FC092305B1286004B1236038BD31
:103550001EF0C6FB0823F6E71FF09FFC0B23F2E7E3
:1035600001230020EFE700BF008000502E4B98425F
:103570004AD022D82D4B984240D014D82C4B984298
:1035800039D00AD82B4B984232D02B4B98422FD0AF
:103590002A4B98422CD000207047294B9842FAD1F0
:1035A000284B186F7047284B98422AD0274B9842D7
:1035B000F1D1244BD3F880007047254B98422BD093
:1035C00009D8244B984223D0234B9842E3D11D4B7A
:1035D000D3F88C007047214B984221D003F5740337
:1035E00003F510539842D6D1164BD3F89800704784
:1035F000144B986D7047134B586E7047114B586FB2
:103600007047104B986F70470E4BD3F8840070478B
:103610000C4BD3F8880070470A4BD3F890007047E2
:10362000084BD3F8940070470048E8010024F400E8
:10363000C0CF6A0080841E0000093D0040420F0098
:10364000405DC6000080E00FC0EA210180BA8C0115
:10365000007E560380D54302006CDC020090D0034C
:1036600073B50D4600210E4B0191D3F880410646FB
:1036700004F00304012C09D0022C0CD00C460EB12E
:10368000019B336005B12C6002B070BD01A8FFF74B
:1036900001FF0F24F3E71EF015FB0190EFE700BFD9
:1036A0000080005038B5104B0546D3F840320C4628
:1036B00003F00303022B0BD0032B0DD0012B0FD1F2
:1036C0001FF0E8FB092305B1286004B1236038BD71
:1036D0001EF006FB0823F6E71FF0DFFB0B23F2E7E3
:1036E00000231846EFE700BF0080005038B5144BA8
:1036F0000546D3F800020C4600F0070004281BD84A
:10370000DFE800F003090D111500012305B1286061
:1037100004B1236038BD1FF0BDFB0923F6E71EF09E
:10372000DFFA0823F2E71FF0B8FB0B23EEE71EF0E9
:10373000B3FA0E23800AE9E700231846E6E700BF44
:103740000080005010B40D4C0B46D4F8204204F019
:103750000304012C0AD0022C0CD008B10021016016
:103760000BB100221A605DF8044B70475DF8044B02
:10377000FFF790BE5DF8044BFFF7B0BE008000502D
:10378000B0F5207F1FD009D8B0F5007F15D003D841
:1037900068B1B0F5C07F0AD000200CE0B0F5607FC2
:1037A000FAD10B4BD3F88000C0F3011003E0084BB3
:1037B000186FC0F3033001307047054BD3F8900009
:1037C000C0F30460F7E7024B186FC0F38020F2E704
:1037D000008000504FF400320E4B014610B500201F
:1037E0009A66FFF7CDFF484341F671320A490B4B09
:1037F000884294BF00200120DC69DA639A6822F4D1
:10380000401242EA00529A60E20344BF0022DA63A7
:1038100010BD00BF00900050005A6202000003502B
:10382000420910B50FD0012A0FD00A4B0A4C022AC8
:1038300018BF234600F01F0049B103F58053012251
:1038400082401A6010BD1346F4E7044BF2E703F51B
:103850000053F4E76880005060820050648000509C
:103860001FB50021B0F5807F0446019100F006816C
:1038700000F29D80612800F295801F2805D800285D
:1038800040F092801EF008FADCE0A0F12004412C08
:1038900000F28A8001A353F824F000BF85380100AC
:1038A000493A010085380100493A0100693A0100AE
:1038B000693A0100693A0100693A0100493A010098
:1038C000493A0100233A0100DD3901009F3A010025
:1038D000A93A0100DD390100493A0100493A0100E5
:1038E000493A0100A9390100A9390100A9390100AB
:1038F000A9390100A9390100A9390100733A010071
:10390000FF390100493A0100493A0100493A0100F2
:10391000BD3A0100B33A0100493A0100A93901005A
:10392000A9390100A9390100A9390100A93901000B
:10393000A9390100A9390100A9390100A9390100FB
:10394000A9390100A9390100A9390100A9390100EB
:1039500085380100A939010085380100853801004A
:1039600085380100693A0100A9390100A93901002F
:10397000A9390100A9390100A9390100A9390100BB
:10398000A9390100A9390100A9390100A9390100AB
:10399000A9390100A9390100A939010085380100C0
:1039A0008538010080284BD0019804B010BDB0F5D7
:1039B000A06F5ED028D8B0F5607F50D019D8B0F590
:1039C000007F4CD004D8B0F5C07F3FF45BAFEBE78D
:1039D000B0F5207F38D0B0F5407FE5D11EF05CF91E
:1039E00002464FF42070FFF7CBFEB2FBF0F2520814
:1039F00033E0B0F5806F37D0B0F5906FD4D10021AF
:103A000001A8FFF7EFFCCFE7B0F5E06F51D00DD87C
:103A1000B0F5C06F43D0B0F5D06F45D0B0F5B06F02
:103A2000C2D1002101A8FFF71BFEBDE7B0F5F06F82
:103A300044D0B0F5086FB7D101A8FFF707FDB3E791
:103A40001EF00AF90190AFE71EF026F902464FF486
:103A50002070FFF795FEB2FBF0F20192A4E71EF092
:103A6000FBF802462046F4E7002101A8FFF712FD0B
:103A70009AE7002101A8FFF765FE95E74FF0E023E4
:103A800002911B695B0705D51EF006F90290029BA7
:103A9000019389E703A902A8FFF720FDF7E70021BA
:103AA00001A8FFF71BFD7FE7002101A8FFF71EFE1D
:103AB0007AE7002101A8FFF7F5FD75E7002101A8CD
:103AC000FFF730FD70E700BF08B58020FFF7C8FEA4
:103AD000034B98429EBF4FF48032024B1A6708BDD9
:103AE000005A620200A000501FB503460020B3F543
:103AF000807F01906FD027D8382B00F082800BD8C0
:103B0000243B092B0FD8092B0DD8DFE803F05F5FAA
:103B10005F5F0C0C5A0C3675522B57D007D83D2BD3
:103B20003AD03E2B72D0019805B05DF804FB802B93
:103B3000F9D1394B1B6F03F00703013B032BF2D87C
:103B4000DFE803F03D36393BB3F5D06F54D019D8D8
:103B5000B3F5A06F55D00AD8B3F5806F36D0B3F562
:103B6000906FE0D1002001A9FFF73CFCDBE7B3F543
:103B7000B06F26D0B3F5C06FD5D1002001A9FFF7F3
:103B8000ADFCD0E7B3F5006FECD00AD8B3F5E06F29
:103B90003CD0B3F5F06FC6D1002001A9FFF7C2FCFD
:103BA000C1E7B3F5086FBED101A9FFF74FFCBAE733
:103BB00005230193B7E70323FBE70723F9E7022374
:103BC000F7E7002001A9FFF74BFDACE7002001A9B2
:103BD000FFF760FCA7E74FF0E02302901B695B074B
:103BE00005D51EF059F80C230393039BE1E703A9C5
:103BF00002A8FFF773FCF8E7002001A9FFF776FDA4
:103C000091E7002001A9FFF79DFD8CE7002001A9A5
:103C1000FFF748FD87E700BF008000504FF4803277
:103C2000074B0849586E03F580535A660B6A23F018
:103C300001030B62C3035CBF034B5A66704700BFAE
:103C40000080005000C0075000A0005008B5FFF7EA
:103C50004BFF082811D00938012802D94FF6FF7010
:103C600008BD4FF40012064B5A6603F5D8335B6A61
:103C7000DB07F3D54FF4FA70F2E7024B1888EFE751
:103C8000009000502E22002008B5FFF72DFF0328DA
:103C90000ABF024B4FF6FF70188808BD2C22002087
:103CA000F8B504468020FFF71FFF032800F0878047
:103CB0004FF40022424B02215A6645F60E03414A58
:103CC000C2F88030404B9962012103F5805399621C
:103CD000936DD903FCD4D4E900131B0543EA0163B7
:103CE000E17B94F820500B43217BE77E43EA0143BC
:103CF000617B6D0143EA0133A17B43EA81131361C8
:103D00009169D4E904031B0643EA806301F0004192
:103D10000B43A17E94F823000B43217E43EA014329
:103D2000617E43EA01239361136AE66923F00D0380
:103D300094F8221043EA8703002E2DD11362966A6D
:103D400094F8213045EA031326F033052B4343F062
:103D5000010393621D4D1B4B9A6D35EA0202FBD1A4
:103D60000222194DAA621A659A6D5200FCD41A6992
:103D7000A56822F4700242EA05521A614FF000422F
:103D8000114B9A6119B9022203F580539A6278B9EE
:103D900001220F4B9A620BE0334343F00803136296
:103DA000936A23F0330303432B4343EA41039362B3
:103DB00094F824301BB1034B064AC3F88020F8BDA9
:103DC0000090005000C0005000D00050030001409F
:103DD00000E00050F1A7FFFF014B93F9000070478E
:103DE000501F0020F0B5D0E901434FF480061A4A75
:103DF0004178057856664FF4D156022702F5B8325D
:103E00005662164E4F2977604FF0010728BF4F21A9
:103E100006F5805677601669F603FCD441EA052161
:103E200051611B01417B43EA04230B43017B43EABD
:103E300041039360C37B817B1B0143EA4113417CB7
:103E40000B43017C43EA41035360837C13B16FF45D
:103E5000D1535362F0BD00BF0090005000100250DB
:103E6000014B1880704700BF2E220020014B1880A4
:103E7000704700BF2C2200204FF4001208B5184BE9
:103E80005A660223174A5360936813F48033FBD1B8
:103E9000012822D11DF01AFF134B984215D003F5CB
:103EA000122303F5F863984213D0104B00EB800205
:103EB000400AB3FBF0F3520A0A49CA620B630123BA
:103EC0004B620022074B5A6008BD45F67A13084A38
:103ED000F2E745F61A03074AEEE75362F1E700BF3F
:103EE000009000500040025000F04902646666668F
:103EF000D8B80500BBCF0500B0F5207F10B50C4643
:103F000042D008D8B0F5007F33D003D888B1B0F5DF
:103F1000C07F0ED010BDB0F5607FFBD11F4A4C1E94
:103F2000D2F8803023F0300343EA0413C2F8803023
:103F3000F0E715F0C2FA15F0CEFA4FF48031184BC5
:103F4000164A1967136F013C23F4704343EA0433A4
:103F500013671DF0A1FE0446FFF738FAC0F1020115
:103F6000204615F0B2FA00F035F8BDE81040FFF732
:103F7000ABBD0A4A4C1ED2F8903023F0F85343EA06
:103F80000463C2F89030C5E7044A4C1E136F23F453
:103F9000806343EA84231367BCE700BF00800050BE
:103FA0000090005008B50121022000F055F94FF4AF
:103FB0002070FFF7E5FB054B187015F07EFA15F041
:103FC0008AFA4FF48032024B1A6708BD4F1F002057
:103FD0000090005008B54FF4C070FFF741FCBDE8F9
:103FE00008400449884294BF012102214FF4207007
:103FF000FFF782BF80F0FA0238B504461DF04CFE90
:104000000546FFF7E3F9C0F10201284615F05DFA15
:104010000121002000F060F92CB1FFF7DBFFBDE8C3
:104020003840FFF751BD034B4FF420701978FFF76C
:1040300063FFF4E74F1F00204FF4C02270B5054620
:10404000FFF794FA314B04465A6603F598335A68E1
:10405000012A04D12E494A609A699207FCD1802036
:10406000FFF742FD052807D115F027FA15F033FABE
:104070004FF48032254B1A67264B24F040749D4242
:1040800030D0254B9D4230D01DF0E0FD85420646E4
:1040900003D90121284600F01FF9204BDA6812F0FD
:1040A000060FFBD199689C609A68624012F4F81F71
:1040B0001ED12846FEF766FC8020FFF715FD052877
:1040C0000DD11DF0E9FD0446FFF780F9C0F10201B2
:1040D000204615F0FAF9FFF77DFFFFF7F5FCAE4239
:1040E0000CD270BD44F00074CEE744F08074CBE78E
:1040F00080209960FFF7F8FC052805D0BDE87040E6
:104100000121002000F0E8B83546DAE700900050C1
:1041100000E0015040420F0080841E00000001506A
:1041200010B5224B70B94FF40031214A1860516626
:1041300002F598325268012A03D11E4AD2F80021B2
:104140001A6010BD1B68002BFBD01B4A5268012A65
:10415000F7D0184A8020C2F80031FFF7C5FC0528C7
:104160001FD14FF4C070FFF70BFB0128044604D1A8
:1041700002214FF4C070FFF7BFFE07220F4B1A61F8
:104180000122A3F580535A600B4A1369DB07FCD563
:10419000012CD6D12146BDE810404FF4C070FFF786
:1041A000ABBE0122064B5A60CBE700BF8410002053
:1041B000009000500080005000C0015000E001500D
:1041C00000D00150044A4178536F23F4407343EA0E
:1041D00001235367704700BF0040005010B50446EC
:1041E00010B10020FFF79CFF124A136943F004034B
:1041F00013611EF0FFFA15F073F90F4B5B6E5B0154
:1042000042BF0E4B0E4AC3F820241EF034FE1FF0AE
:1042100083F81EF02BFE15F064F901F02DFF1CB998
:10422000BDE810401DF038BD0120BDE81040FFF78B
:1042300077BF00BF00ED00E00080005000E00350B9
:104240000000FF0F034A0179D36E23F030030B43C4
:10425000D366704700400050F8B504461C4BD3F8B5
:104260008420D106FBD4D3F88430C3F381139C425D
:104270002CD01DF0F1FC012C064602D1214615F090
:1042800024F91EF0F8FD4FF00072124B07465A66F3
:10429000204615F02DF94FF480630D4D621E9340BA
:1042A0002B676B6E9A0103D4D5F884309B060AD530
:1042B00038461EF0DBFD022C08D13046BDE8F84040
:1042C000002115F002B9D5F88430EAE7F8BD00BF47
:1042D000004000500060005010B50C4608B91DF0B9
:1042E000BBFC074B21461B783BB1064B984204D8D8
:1042F0000120BDE81040FFF7AFBF0220F9E700BF83
:10430000511F0020005A62020278034B0121002055
:104310001A70FFF7E1BF00BF511F00204FF00042AD
:1043200038B5264B26495A6601224A604AF6CD31F5
:1043300003F50B235D6C1964154030BB9968C90700
:104340000BD4002401221F4B5A6015B11E4B1F4A8B
:104350001A641BF079FF204638BD1A498A601C4A4E
:10436000D96ACC0705D4904201D10724EAE701308D
:10437000F6E79042E5D1F8E70132DC6A14F0080470
:1043800006D08A42F8D10724DFE700221049F4E77B
:104390008A42F8D020220B4B0B495A620122A3F526
:1043A00080539A6023460A4A486A800603D493429F
:1043B000E9D00133F8E79342C7D1E4E70090005019
:1043C0000050095000600950004009503254FFFF6E
:1043D00040420F004FF0004238B5174B174C5A6659
:1043E000012203F50C235A604AF6CD33656C236431
:1043F000437893401343124AD363C3788178A26809
:104400009B0043EA011322F074021343A360027974
:10441000837943EA022323614279C37943EA022381
:1044200063610078FFF77AFFEB0744BF054B236415
:104430001BF00AFF012038BD0090005000400950D9
:10444000004000503254FFFF10B5044615F055F8F7
:10445000002341F202020849E360A360226104F5EF
:104460000052E3616361A36123626362E362A36458
:104470005164A36210BD00BF7F370C0138B50446FC
:10448000154639B91848844214BF08463820FFF74A
:10449000E7F901466368A36803F0E003402B1AD0F4
:1044A00003D8D3B1202B1AD038BD602B19D0802B64
:1044B000FAD101236B434901B1FBF3F10B4A2039D7
:1044C000204602EAC102012115F013F8A262BDE8FC
:1044D000384015F00EB80623ECE71023EAE708236E
:1044E000E8E70423E6E700BF0000035AF8FF7F0077
:1044F000F8B5436804460D4616461BB140F2FF71FD
:1045000014F0F7FF2046FFF79FFFE9896B7B2269D4
:104510000B43298A22F44C520B4322F0030213432B
:104520002361A2682B7B297E22F0804222F0E202E6
:104530000B4313436A69AF681343A3601FB9A368B1
:1045400043F00043A360EB69002B57D0987A1A7AA6
:104550004004A16840EA82503E4A0A4010439A88CB
:1045600002F4C04210435A7840EA82005A7B40EA83
:10457000C2009A7B40EA02109A7840EA8220A0604A
:10458000E168D3E9042021F4D81121F4C061024389
:104590000A43997942EA8122D97942EA4122E260CA
:1045A0001A78012A05D1E26842F00402E2602A4A40
:1045B00006E0032A3DD1E26842F00402E260274AA5
:1045C0000121C2F8C0105A7A04F580510A621AB16A
:1045D000E26842F40062E260DA7A4AB1E2682049B5
:1045E00042F40042E2601A7B02F00F02C1F8802020
:1045F000E269DB7B22F003021343E36136B196F8F4
:10460000203004F58051C3B101238B610521204680
:1046100014F090FF1FB13A466968FFF72FFF20465C
:10462000297814F0A4FF236CDB4313F4405FFAD124
:10463000F8BD023A012AC2D9B9E7626996F8223078
:1046400096F8210022F009020343134343F00103CB
:104650004B61DBE7E39BBDFF00E4035000D4035054
:1046600000900350F8B504460D461F4616464AB161
:1046700001238B403021184A01FB0022F7B141F29F
:104680001001535004EB4403072D4FF00F014FEA84
:10469000031316D8A80006FA00F281400F48184408
:1046A00014F074FF4EB9012330210B4AAB4001FBDB
:1046B000042277B141F210015350F8BD42F21001CB
:1046C000DFE7A5F10800800006FA00F28140044807
:1046D000E5E742F21001EFE700C0035004C00350C9
:1046E0000CC0035010B5152000F0A4FD0024FF22DB
:1046F000064B21465C6520209A625C60FFF790F8CB
:104700002146BDE810402120FFF78AB80000045080
:10471000044A054B002908BF1346012282401A6053
:10472000704700BF401004504020045010B50121D4
:1047300004462020FFF774F801212120FFF770F8CC
:104740000122114B15205A60227812069A60617876
:10475000A27842EA01429A61FF229A6200229A6399
:104760001A644FF000425A654FF0FF3203F50053D0
:104770001A6500F08DFD1520E17814F0DCFFBDE82E
:104780001040152000F068BD00000450F8B5012568
:10479000C3B21E4FD1F800C09D408E7ACB7A0C4632
:1047A000097B3D6507F5005747F820C04FF0300CF6
:1047B0000CFB00F01B05677B00F1A04043EA0643B9
:1047C00000F5802043EA415322F003020766C365E7
:1047D00002671EF059FB0E4B227A5D6502B11D6423
:1047E000627A02B19D632279A37943EA0243074AC0
:1047F00093616179E37943EA014305498B61054B94
:1048000055639D64BDE8F8401EF039BB002004509C
:10481000001004500000045010B50124C0B28440C0
:104820001EF032FB044B5A6D22EA04025A659C6268
:10483000BDE810401EF023BB0000045010B5012459
:10484000C0B284401EF020FB074BDA6A224208D136
:104850005B6B9C430CBF012400241EF010FB204620
:1048600010BD0024F9E700BF0000045070B50546F4
:104870001EF00AFB3022084B5E6B02FB05335C6EB8
:104880001EF0FDFA0123EDB2AB4033420ABFC4F380
:104890000A100020013070BD00000450CB784A7827
:1048A00010B55B010C7843EA82030A79234343EA9B
:1048B00002130C22424302F1B0421363012C02BFE7
:1048C0008A78024B43F8202010BD00BFE8800350D7
:1048D00008B54FF0B0435A686AB958B15B680BB17C
:1048E00014F063FE01210D4B596014F05EFE4FF091
:1048F000B043D96008BD5B680BB114F056FE0028C8
:10490000F0D114F052FE4FF0B0430222DA6014F0FE
:104910004CFE0122024B5A60ECE700BF0010005829
:10492000002000584FF0B0414B6810B50BB114F0A7
:104930003CFE01220B4BC4785A608378934043EAD3
:10494000840344782343047943EA0413447943EA13
:10495000C4038B60044B5A600378C3F10203CB603D
:1049600010BD00BF00200058001000584FF48032E6
:10497000064B5A6603F5E6235B69C3F38512827022
:1049800003F03F021B0B4270037070470090005011
:10499000014B986CD96C70470080E00F024B18688F
:1049A000C0F30740704700BF0080E00F034BD3F80F
:1049B0002424D3F820041040704700BF00C00350E7
:1049C000064BDA6E02F03002202A06D0DA6E22F0B0
:1049D000300208B142F01002DA6670470040005021
:1049E0002DE9F8431E4B0546D3F810334B1E0E2B12
:1049F0000E46174690F8009044781DD909B34FF041
:104A000000082846D7B11EF04BFA09EB4903072CE2
:104A10004FF00F014FEA031315D8A400114808FA0C
:104A200004F2A140184414F0C8FDBEB928468FB165
:104A3000BDE8F8431EF034BA8846E2E714F0CCFD36
:104A4000E3E78846E1E7083CA400074808FA04F2D7
:104A5000A140E7E7BDE8F84314F0BEBDBDE8F88328
:104A600000C0035004C003500CC003502DE9F041B6
:104A70002B4B1746D3F810234A1C06460C464078A9
:104A800004D1D3F8241414F0B5FD0446002C2FDB18
:104A9000072C4FF0030532782DDC4FEA840805FA25
:104AA00008F529461F4802FA08F214F086FD294647
:104AB00072781D4802F0030202FA08F214F07DFD3C
:104AC000012317F0050F194A18BF194903FA04F317
:104AD0000CBFC2F81034C1F8103417F0060F18BF1D
:104AE000134AC2F814340123104AA340C2F82034F8
:104AF0002046BDE8F081A4F108084FEA880805FACD
:104B000008F529460B4802FA08F214F056FD7278AF
:104B1000294602F00302084802FA08F2CEE700BF75
:104B200000C0035000C4035008C4035000E0035009
:104B300000D0035004C403500CC4035038B50546DC
:104B40000C4C0140D4F8303423EA0003C4F830346C
:104B5000D4F830341943C4F83014D4F82C34034357
:104B6000C4F82C34012004F50054FFF729FFC4F8E1
:104B7000205438BD00C00350124B70B5D3F8103329
:104B8000064614F051FD0446481C154603D1621C2C
:104B900005D1204670BD631CFBD08C420ED130463F
:104BA000032185F00102FFF71BFF012004F1100330
:104BB00005FA03F19840FFF7C1FFEAE74FF0FF3431
:104BC000E7E700BF00C003504FF48032084B5A663D
:104BD00003F5E6235B691A0B027003F03F02427093
:104BE0004FF6FF72C3F3851342808380704700BF86
:104BF00000900050014B986CD96C70470080E00F1A
:104C000070B504461BF0ECFB064630B90FCC044DE2
:104C10000FC594E8030085E80300304670BD00BF6F
:104C20008810002047F6FF739A42F0B56FD0022932
:104C30006FD8394B5B5C012B6BD8384DDF0005EB2F
:104C4000C30415F83330A178012B13D10025E07887
:104C5000401AA84202D80844C0B2F0BD431B66689F
:104C6000A0EB530336F913609642D4BF1D4603F1FF
:104C7000FF30EEE760680028EFD0B0F900409442C2
:104C800004DBB0F902409442B8BF144683883D4427
:104C9000FF2B19BFC8224FF0280CB0F90620B0F93D
:104CA00008C0A2EB04030CBF0126002693FBFCF313
:104CB00033446E781BB29E4201DD002B01DA731E75
:104CC0001BB24FF47A7C01339BB2071D5D1E2DB2DF
:104CD0004FEAC50E00EBC505EA88AD689E4214FB9D
:104CE000025222EAE27202F15C02B2FBFCF204DD43
:104CF00037F8335001339542E8D200EB0E03988821
:104D0000904228BF1046884238BF0846A4E7FF20DB
:104D1000A3E70020A1E700BF3B3403008810002078
:104D20000229F0B555D82C4B585C012851D82B4C92
:104D300004EBC00114F830004B6801280FD1C8788B
:104D40008C78904294BFC4EB0001C4EB0201001BBD
:104D5000CAB28242C8BF002233F91200F0BD002B54
:104D600037D08878904202D3B3F90200F6E7CC78C6
:104D7000B3F900009442F1D94C789988013CA1F133
:104D8000FF06714203F10405E4B2714103F10C071F
:104D9000CEB2B44216D805EBC1014FF47A756A431E
:104DA000B1F902404968521A04EBD47102EB610276
:104DB00092FBF4F29042D1DBB3F902009042CDDCD9
:104DC00010B2CBE737F831C04E1C9445E3D33146DF
:104DD000DEE70348C2E700BF3B3403008810002031
:104DE0000080FFFF08B50448FFF70AFFBDE8084050
:104DF00001201BF0F9BA00BF1C3E030000487047B9
:104E0000302200207FB50222084B0949CDE9012359
:104E10004FF00073CDE90313052301A94FF0FF30D4
:104E200005931BF036FB07B05DF804FB006A180021
:104E30000002040006289ABF014B185C002070474E
:104E40003F3403004FF40052034B00209A660322C4
:104E5000C3F86022704700BF009000504FF400522A
:104E6000034B00209A660322C3F86022704700BFFC
:104E700000A000502DE9F04F89B007460E4601F022
:104E80006DFAC00709D40424012015F0ACFA80B3F0
:104E9000013CF9D16FF0920028E0102200210DEBC7
:104EA000020015F032FE04A801F0BAFA049B002BB0
:104EB000E9D0059B002BE6D0069B002BE3D0079B97
:104EC000002BE0D00025DFF8808008F10409B5420E
:104ED00019D34FF48A7401F03BFA00F00E03062B4D
:104EE0002DD1C30501D501F065FA002009B0BDE858
:104EF000F08F01F02DFA10F00E03FAD0022BF8D04B
:104F00004105DFD5C4E701F01DFAA6EB050A8400D0
:104F1000544528BF544699E8030000238DE8030058
:104F2000CDE9054307EB050BCDF810B0029404AAB8
:104F3000D8F8003007CA15F0F8F92544C7E724FA75
:104F400003F3DA07A6D5C6E76434030070B5044658
:104F50000D461DF099FF1D2C064608D80C2C0AD8CA
:104F6000082C2CD013D8BB23E340DB0718D4002334
:104F700021242B801EE00123174AA340134224D191
:104F8000122C26D00D2CF2D14FF4F06005E0092C44
:104F900018D00C2CEBD14FF4C060FEF757FE02E0A6
:104FA0008020FEF771FE4FF6FF7398420CBF0E246F
:104FB0000024288030461DF062FF204670BD4FF46B
:104FC0008060EEE74FF49060EBE700230F242B8026
:104FD000F0E74FF4E060E0E70080912030B58BB05F
:104FE0006C466B4D0FCD0FC42B686A4A2360FF23BC
:104FF0008DF80130D2F84C3113F4802340F0BC809E
:10500000D2F850218DF801309DF801306C46FF2B0D
:1050100008BF19236846604D8DF80130FEF7E2FEA7
:105020003220FEF71DFF0FCD0FC40FCD0FC495E842
:10503000030084E80300574BD3F84C21120340F1DE
:105040008780A3F5FE431C88B4F5807F28BF8C249D
:105050008DF81940FEF7C0FE044484F308044F485D
:105060008DF81840FDF794FC6846FEF719FE3220D3
:10507000FEF7FCFE4A48FEF7DFFF4A4C4A481DF0A7
:10508000EAFF0020FEF7F8FEFEF78CFF236F0020FA
:1050900023F0070343F003032367FEF7ADFF236FFD
:1050A000424923F474432367414BD3F8FC2012F0A8
:1050B000807251D1C1F880203A4BD3F8202122F0E0
:1050C000030242F00202C3F82021D3F8242122F087
:1050D000070242F00202C3F82421D3F8802122F013
:1050E000030242F00102C3F88021D3F8402122F0EC
:1050F000030242F00202C3F84021D3F8602122F0FB
:10510000030242F00202C3F86021D3F8402222F0E9
:10511000030242F00202C3F84022D3F8002222F038
:10512000070242F00202C3F80022D3F8202222F044
:10513000030242F00102C3F82022FEF76FFD4FF098
:10514000E0220020136943F0040313610BB030BD6B
:10515000D3F85041E4B27BE7D3F8FC2022F0807210
:10516000C3F8FC200022C1F88020D3F8FC2042F0D4
:105170008072C3F8FC209FE74FF07E6393F89C2079
:1051800093F99C30002BFFF63FAF8DF801203BE7F1
:10519000703403000080E00F8434030000F0490203
:1051A00000B4C40400800050B834030000900050E4
:1051B00000ED00E007B56B46054A1068516803C36F
:1051C0006846FFF707F9002003B05DF804FB00BF55
:1051D000AC3403000028ACBF00F16040064B4FEA3E
:1051E0000111C9B2ABBF00F5614000F00F0080F8BB
:1051F00000131954704700BF14ED00E008B51DF00E
:1052000043FE0B4B1A7872B901221A701DF037FE5B
:105210006FF0040210460132052152B2FFF7DAFFA7
:10522000402AF7D108BDBDE808401DF028BE00BFE8
:10523000521F002000280CDB01220649430900F020
:105240001F008240203341F82320BFF34F8FBFF36C
:105250006F8F704700E100E0002807DB0123410960
:10526000034A00F01F00834042F82130704700BF1E
:1052700000E100E0054B421153F8223000F01F001E
:1052800023FA00F0C04300F00100704700E100E0A5
:10529000002808DB01224309034900F01F00824077
:1052A000603341F82320704700E100E010B5044668
:1052B0001DF0E1FD024B1C601DF0D8FD002010BD6B
:1052C000A410002010B51DF0D6FD034B1C681DF086
:1052D000CDFD204610BD00BFA410002038B5044607
:1052E000D0F8A4301D682B6C5906FCD5002394F827
:1052F000AD101A4694F8AC00FFF7B4F9002394F807
:10530000AF101A4694F8AE00FFF7ACF994F8B43039
:10531000DA0707D5002394F8B1101A4694F8B000C4
:10532000FFF7A0F994F8B4309B0707D5002394F851
:10533000B3101A4694F8B200FFF794F9012205F56C
:1053400000539A64042200219A642846094D14F0FF
:105350000EF9D4F8A8001DF081FE284604F1B8012A
:1053600013F0A1FF2B6813B9034800F059FD00208A
:1053700038BD00BFA8100020AC100020012910B5D6
:1053800002D902290DD010BD0F4B1C68B83C14F196
:10539000B80FF8D0D4F8A8001DF05DFED4F8B840DE
:1053A000F4E7094B1C68B83C14F1B80FEBD094F843
:1053B000973033B994F895301BB9D4F8A8001DF094
:1053C0004DFED4F8B840EEE7A81000202DE9F047D4
:1053D0001D4613688EB0D3F8009091F831308246A4
:1053E0008846144606AE002B00F0DF80734F0FCFC7
:1053F0000FC697E80F0086E80F00182200216846C4
:1054000015F083FBA3680893237B012B00F0CF806A
:10541000022B0CBF4FF440730023ADF82630637BA2
:105420000127032B8CBF4FF48053654ACDF834D04D
:1054300098BF32F813308DF80670ADF82830A37B92
:1054400029465A1E022A88BF00235E4A8DF8003082
:10545000D8F8383050461A605B4A5A605B4A9A6006
:105460005B4ADA60424600F00BFB0646002840F03B
:10547000988023695748C5F8A830E37D85F8AF3098
:10548000A37D85F8AE30637D85F8AD30237D85F84A
:10549000AC30637E85F8B130237E85F8B030E37E92
:1054A00085F8B330A37E85F8B2302368C5F8A43000
:1054B0001DF0D1FD3B460422617D207DFFF7D2F82F
:1054C0003B46E17D0222A07DFFF7CCF885F8B46071
:1054D00020691DF0C0FD98F83130484606A9002B20
:1054E00068D014F04EF895F8B43043F0040385F812
:1054F000B4300222384BC3F8C020607D217D41EAE0
:105500000041C3F8D010E07DA17D41EA0041C3F81D
:10551000CC10A37B03F0FD03012B0AD195F8B43026
:1055200043F0010385F8B430617E0023207EFFF74D
:1055300099F8A37B023B012B0BD895F8B4300422D9
:1055400043F0020385F8B430E17E0023A07EFFF72C
:1055500089F895F8B430DB070FD5637E227E42EAE6
:1055600003421E4BC3F8C4200122C3F8C020E17ED1
:10557000A27E42EA0142C3F8C820194B1B681BB93E
:105580001849194800F03AFC154805F1B80113F024
:1055900077FE164A09F50053052148465A6413F070
:1055A000E6FF30460EB0BDE8F087114F1FE74FF41D
:1055B000007332E713F0E8FF9BE700BFE434030019
:1055C000DC340300ED9702001F98020003980200EC
:1055D000DD520100BC34030000C4035000D403506A
:1055E000A8100020A0200020AC1000207F370C0164
:1055F00004350300034B0222186800238068194613
:1056000002F08EBAF4200020302337B5007D0DF172
:105610000701434303F1A04303F58023DD6E1C6FB4
:105620001CF0B0FB9DF8070040B9054B9D4203D12B
:1056300084F00204C4F3400003B030BD0120FBE756
:10564000531F00203021037D02464B4303F1A0434A
:1056500003F58023D86E07491B6F884208D113F0E9
:10566000020006D0106A136D1B1A58425841704749
:1056700000207047531F002070B5044608B9012070
:1056800070BD057D2846FDF727FE30236B4303F1EF
:10569000A04303F580232846DE6EFDF73DFE0A4B4E
:1056A0009E421CBF042384F8A13094F8953094F8EE
:1056B000A1002BB1022803D1012384F8A130DFE738
:1056C0000428DCD1F8E700BF531F00202DE9F74381
:1056D000D0E9043404F17C07D0F80C900646013B75
:1056E000102200213846D4F874809DB215F00DFACE
:1056F0000B4BC5F30A0543EA0513C4E91F3901231F
:1057000094F8780084F88C30C4F884803A46054BCD
:10571000009604F16401FDF7B9FD03B0BDE8F08324
:1057200000001030DD9802002DE9F04F04464FF4E0
:1057300044764FF030093F4D00F138071022002128
:1057400085B0384615F0E1F96687C4E90F55207D2C
:10575000FDF7C2FD10220021384615F0D6F9668704
:10576000207D354EC4E90F5509FB0063DB6EAB426B
:1057700004D105B0BDE8F04FFDF7CEBD0DF10B0132
:105780001CF000FB9DF80B50002D4CD1204614F06E
:1057900089F8804603A9207D1CF016FB039B29464F
:1057A000013B1FFA83FB04F118031D461022184623
:1057B000D4F810A015F0A9F9A169204ACBF30A0387
:1057C0001B010A4043F040731343C4E9063A237DAA
:1057D000C4F8208009FB0366336F94F824205B082B
:1057E00063F3410284F82420326F94F8243025F0CA
:1057F000030562F3000384F82430336F626A9B0868
:1058000063F39F0245F002056262656400943A46C4
:1058100021460B4B207DFDF739FD207DFDF77CFDFA
:1058200005B0BDE8F08F94F844306FF3410384F87D
:105830004430EBE7531F0020000004500F80FFFCB2
:105840004B9902002DE9F04F9946002304468DB094
:1058500008910692C9F80030D9F80050069B5E1BEB
:1058600000F09E80089B5D1900F09A80207DFDF776
:1058700033FD2046FFF7E6FE8046207DFDF74CFD18
:10588000B8F1000F40F08C80204614F00BF8216D29
:1058900094F89AA088429CBFD4E91203C018401A19
:1058A000864228BF0646BAF1000F00F0A9801DF01D
:1058B000EBFA236D079020460993FFF7A5FE3746C4
:1058C000099B834698198342D4F89C2071D1D4E96E
:1058D000120303449A4208BFC4F89C0007981DF0C5
:1058E000CEFADA46207DFDF7F7FC0DF12F01207D81
:1058F0001CF048FA204613F0D5FF236D83469842EA
:1059000040F28C80A26CB5B293427FD1099304F12E
:1059100028082369102200214046079315F0F5F866
:105920003021079B013DE362099BC5F30A05236310
:10593000237D2D014B4328F0030803F1A04345F0DC
:10594000407548F0020203F58023A5621A67236DB3
:10595000D4E9121233440A44934208BF0B465B4514
:10596000236505D10123204684F85430FFF7DCFE7F
:10597000207DFDF7D1FC94F89A303BB1BAF1000FCD
:1059800004D0236E112120465B689847D9F8003077
:1059900037B1069A3B449342C9F80030FFF45CAF3C
:1059A000D9F80030002B14BF00201B200DB0BDE83B
:1059B000F08F013303F1FF3C624510D1C4F89C30F5
:1059C00013F8012C112A01D0132A15D1013FA2F19D
:1059D00011014A424A41D04684F8A02073E713F8E7
:1059E000012C02F0FD0CBCF1110F06D1013FB8F102
:1059F000000F3FF468AFEAE7D04605F8012B62E7F5
:105A00003246284615F08CF837466BE7238DC3F3F2
:105A10000A12154465F30E13238598E79DF82F307D
:105A2000207D93B93023584300F1A04000F5802039
:105A3000426E436EC2F30A1223F4FF43324423F052
:105A4000700343EA0213436681E70C4B049403930B
:105A50000023CDE90163012300935A46236921689D
:105A600013F011FD3022237D534303F1A04303F5CE
:105A700080235A6E22F480125A6668E74B9902001E
:105A8000F0B50C4615460646A422002189B02046F2
:105A900015F03BF82746AC46BCE80F000FC7DCF812
:105AA000003005F1140C3B6004F16407BCE80F0002
:105AB0000FC7DCF80030EA6A3B60AB6AC4E9132325
:105AC00095F83020A36484F8992095F83320C4F821
:105AD0009C30012384F89A2084F8A03084F8543054
:105AE000AB6B236695F8313084F898303F4B3460C7
:105AF00073603F4BB3603F4BF3603F4B73613F4B71
:105B0000B3613F4B3361FDF78DFB10B13D4B9842C4
:105B10000ED1002107A8FDF70DFB014640B9079BF8
:105B200007A82375FDF706FB28B1207DFDF754FB80
:105B3000102009B0F0BD0127079B84F87830324B64
:105B40007362324B84F8A170F361314B95F83210D7
:105B5000336284F8960084F89570204613F0C5FFF0
:105B6000AB6B93F91100FFF793FBAB6B93F911004B
:105B7000FFF772FB207DFDF7AFFB0028D8D1254B46
:105B80000494CDE90203E36CCDE900732369A26CB0
:105B90002168207D13F077FC0028C9D13022237DB5
:105BA0004FF48011534342F2640203F1A04303F522
:105BB00080239950AB6B93F91000FFF769FBAB6B37
:105BC00093F91000FFF748FB04F1900013F055FB28
:105BD0003046FFF76BFB2046FFF7A6FD207DFDF763
:105BE0009BFB003818BF01200001A2E7BB9902000F
:105BF0000599020045580100939802009998020007
:105C0000639B0200038000F079560100EB9A0200CA
:105C10009F9802004B99020070B50568144E2C7DC8
:105C20002046FDF759FB302303FB0463DA6E114B6A
:105C30009A420FD12846FFF7E7FC80B11DF024F906
:105C400001230D4AA3405365A2F58052936253632A
:105C50001DF015F92046BDE87040FDF75DBB2846F4
:105C6000FFF7F0FC0028F5D10123A340B364F1E76E
:105C700000000450531F00200020045007B5684660
:105C800000F028F8DDE900010022034B03B05DF8C5
:105C900004EB14F0C1BA00BFB410002007B50093A4
:105CA00013460A460146034813F0FEFF03B05DF8B1
:105CB00004FB00BFB410002007B5009313460A464A
:105CC0000146034814F0D5F903B05DF804FB00BFAA
:105CD000B41000200249034A0160521A4260704722
:105CE000F82200200080002000487047B4100020F7
:105CF000BFF35F8F074B5A6A22F480325A62D3F89F
:105D0000942022F00102C3F89420BFF34F8FBFF319
:105D10006F8F704700ED00E038B5FFF7E9FF274AC5
:105D20002748D2F8C030274D23F0FF0343F0A003EB
:105D3000C2F8C030244B04689D4204F101011DD11A
:105D4000224BC2F89840C2F89C3003F5FF437E33E3
:105D5000C2F8A0300160BFF35F8F0522174BC3F874
:105D600094205A6A42F480325A62BFF34F8FBFF3D5
:105D70006F8FBFF34F8FBFF36F8F38BD23F01F03BB
:105D8000203BB3F1005F09D3C2F898400F4C43F0B9
:105D90000103C2F89C40C2F8A03001600C4B0168BE
:105DA000064A23F01F0343F00303C2F89810C2F819
:105DB0009C30084B0131C2F8A030CBE700ED00E089
:105DC000DC10002080200020402000200300002064
:105DD0009F200020E17F0020BFF34F8F0549064B35
:105DE000CA6802F4E0621343CB60BFF34F8F00BF79
:105DF000FDE700BF00ED00E00400FA0538B54160A2
:105E000004461DF038F805462146044813F038FAD8
:105E10002846BDE838401DF029B800BFE01000203A
:105E200038B505461DF027F804462946034813F007
:105E30003AFA2046BDE838401DF018B8E0100020BE
:105E4000014813F01ABA00BFE010002070B51DF031
:105E500012F8174E054617481DF0FDF83378CBB9F8
:105E600000F07CF9044620B128461CF0FFFF2046D4
:105E700070BDFFF7E5FF1DF0EEF90F4B1C601CF045
:105E80004FFE0E4B0E4A1860536F43F001035367E9
:105E900014F0E2F900F078F814F0F5F9094B002459
:105EA00018600123284633701CF0E0FFDFE700BFD5
:105EB000601F0020BC340300E41000200C110020FF
:105EC00000400050E810002038B504461CF0D3FF15
:105ED0000F4D02462B78FF2B04D1B4B1BDE83840FA
:105EE0001CF0C4BF1BB9002CF8D0012103E0002C2A
:105EF0000CBFFF2101210B44DBB22B70B3FA83F3FB
:105F000004495B0910460B70E8E71946F3E700BF48
:105F10005D1F00205C1F0020054B1B685843054B8C
:105F200000F5742000F23F20B0FBF3F0704700BF93
:105F30000C11002040420F0073B5114E0446337817
:105F400083420FD04FF400730E4DADF8043058B1BA
:105F500001A8FEF737F94020FFF7DEFF2B68181A7B
:105F60002860347002B070BD8DF8050001A8FEF7FE
:105F700029F94020FFF7D0FF2B681844F0E700BF55
:105F8000CF2200204411002073B5002401A88DF811
:105F90000440FEF7B9F92046FFF7CEFF2C4B2D4AFF
:105FA000D3F8003103F0030313604FF400222A4BAF
:105FB0005A664FF400325A661CF018FB4FF4C87052
:105FC000FFF7AAFF254B264A1860264913680134BB
:105FD000E4B20A2C41F8040BF9D1034400EBC000F1
:105FE00003441360204B214D1B7813B3184BD3F897
:105FF000003103F00303022B23D0032B24D0012B09
:1060000017D11BF063FE024698B1194B194EDC689C
:1060100000231946C4F30B04013404EB8404013853
:10602000E4FB060101F036FBFFF776FF2B68034423
:106030002B601F20FFF770FF2B6803442B6002B01A
:1060400070BD1BF04DFEDEE71BF046FEDBE700BF38
:10605000008000504C1100200090005010110020D2
:106060001411002018110020641F0020441100208A
:1060700000C0015040420F000122154B10B55A6775
:10608000144B154C1B7813B302201DF0D5F8F0B15A
:106090001CF0DAFDD8B1A36DD90302D5E36D9A07E0
:1060A00015D40D4B9B6DDB0711D401220B4B1A70DD
:1060B0001DF0B6F8BDE81040094B0A4A1860136F8E
:1060C00023F0070343F0030313671BF0E5BD10BD86
:1060D00000D00050651F002000C00050621F00204B
:1060E00040110020008000500122014B1A707047BF
:1060F000651F002008B5FFF7C1FDFEF74FFC012822
:106100000ED1134B04205A6E4FF4802311495203D1
:1061100058BF114A4B6601F51041086258BF5366DB
:1061200014F0B5F8FFF76AF8FFF744F813F0FFFA38
:10613000FFF78CFE00F012F8FFF7EEFD14F0A8F860
:1061400014F0B5F814F037FCBDE8084014F0A1B81D
:10615000008000500090005000A0005070B51CF06E
:1061600093FE144E05463478FCB9134B1C60134B58
:106170001C60134B1C6000F031F801201CF04CFE39
:106180001CF03EFE0F4B0246186020B928461CF05A
:1061900076FE232070BD234640F2E7310A4801F025
:1061A00079FA0A4B18600123337028461CF067FE09
:1061B0000020EFE7681F0020601100205C11002024
:1061C000681100206411002018FCFFFF5811002006
:1061D000014B1868704700BF581100201FB50024FC
:1061E000194B18689A880290D3F806009B7A0090A1
:1061F0001648ADF80C208DF804301CF02CFF02A8D6
:106200008DF808408DF80C40FEF78CFB69460120A4
:106210008DF80040FEF742FB40F2FF320C4B9A61D2
:106220005A614FF0B042936A13F00803FBD1136236
:106230000120FEF74DFB0C20FFF72AF80C20FFF79A
:106240000BF804B010BD00BF27350300B4340300C1
:106250000020005810B51CF017FE4FF0B043044664
:106260005B695A06074A03F0010003F0510348BF77
:1062700040F0020053611CF0FDFC2046BDE81040D8
:106280001CF0FDBD0020005838B5044605F096FA14
:10629000A8BB0323A383052363760423A376A36803
:1062A00043F48013A36014F019F8A368A0801B03C3
:1062B0000CD4B0F5FA7F09D91CF0DDFD01210546AB
:1062C00008461CF007F828461CF0D0FD204605F0D3
:1062D0009FFAA8B9E068A0B106F086F914F0AEFE06
:1062E00016F01FF816F03CFD00220121042017F0E3
:1062F00015FC0321042003F025FD13F0FCFF002012
:1063000038BD0148E8E700BFD122002008B50449A4
:1063100004480AF04FFCBDE808400AF07DBC00BF0D
:1063200034350300B83503004FF08052014B5A60FA
:10633000704700BF00ED00E0014B1868704700BFD8
:106340000040025C014B5868704700BF0010025CBF
:10635000014B186B704700BF0010025C014B1868BE
:10636000704700BF0010025C014B9860704700BF8F
:106370000010025C014B1864704700BF0010025C03
:10638000014B5864704700BF0010025C014B58631A
:10639000704700BF0010025C0022014B1A6070477A
:1063A0000010025C024A136843F001031360704757
:1063B0000010025C024A136823F001031360704767
:1063C0000010025C43F20402014B1A60704700BFE8
:1063D0000010025C024A136843F0300313607047F8
:1063E0000010025C044B1A6842F480721A601A684A
:1063F00022F480721A6070470010025C024A13682F
:1064000043F48063136070470010025C034A136812
:1064100023F4702343EA0043136070470010025CCA
:10642000044B1A6902605A6942609A698260DB69AA
:10643000C36070470010025C0268044B1A61426836
:106440005A6182689A61C268DA6170470010025C22
:10645000024B1A6BD207FCD4186270470010025C22
:1064600082B01FB507930A9B04AC8B4228BF0B4632
:1064700004E907001048D100079948BF03330160C1
:10648000099948BF23F0030323F0704301F0E04172
:10649000194341F000518160002102F0E042019C6B
:1064A0001A4342F00052C16004618261416304B04A
:1064B000BDE8104002B070470000025C3F22034B71
:1064C0001A631022DA6103229A6370470000025CAB
:1064D000024AD36B9B07FCD4704700BF0000025CEC
:1064E000044B9B6A13F0240F14BF0120002080008E
:1064F000704700BF0000025C08B5FFF7F1FF064BD4
:10650000DB6B23F47F4323F0EF0303431EBF012221
:10651000024BC3F8FC2F08BD0000025C00F0FF3FF7
:1065200070B598B0002843D02C4C08AD0FCC0FC5E7
:106530000FCC0FC50FCC0FC594E80F0085E80F00F6
:106540006D4604AE04F1100320340FCB85E80F0034
:1065500094E80F0086E80F00FFF744FF0420FFF7E0
:1065600055FFFFF72FFF3046FFF766FF002408AE08
:1065700056F8040B0134FFF76BFF102CF8D1FFF72E
:10658000E1FE0328FBD90024FFF706FF2646FFF7AC
:10659000D3FE55F8043B01365840042E44EA00046B
:1065A000F5D12CB1012206200D4B1A7018B070BD28
:1065B000FFF718FF0820FFF7D7FE0020FFF7DAFEED
:1065C0000720FFF7DDFE4FF40070FFF7DFFE082025
:1065D000FFF71CFFFFF7E6FE0020E7E7F4350300B6
:1065E0006A1F002008B5FFF7FDFE0122014B1A705B
:1065F00008BD00BF691F00201FB513F0E7FE044669
:1066000030B1012206240D4B1A70204604B010BD93
:10661000FFF792FE0090FFF78FFE0190FFF78CFED0
:106620000290FFF789FE03906846FFF705FFFFF72A
:10663000D9FFFFF7CFFEFFF7E1FEE6E76A1F002074
:1066400010B50A46044619B1024B00211B68984751
:1066500010BD00BFA82000200E4B0340B3F1607FA7
:1066600006D1B1F5885F14BF6FF086000020704737
:10667000B3F1707F0BD101F4E043B3F5005F06D1B5
:1066800011F4E06F0CBF6FF08600002070476FF0D0
:10669000860070470000C07F8A42F8B506460C4667
:1066A00000F0DB806F4922F4FF7323F001038B427B
:1066B0000ED06D4B22F0FF01994209D06B4822F4B5
:1066C0007F7323F00303834202D0694B994228D1A0
:1066D000684B24F0FF0199420FD114F0FF000BD05A
:1066E000654B40F00070984240F0B98082EA0400A7
:1066F000FF288CBF00200120F8BD5B4B9942ECD0F5
:10670000A3F588539942E8D024F4FF7323F00103E2
:10671000B3F1062FE1D056488142DED053498B4277
:10672000DBD004F0FE43B3F1A06F14D102F0FE43BE
:10673000B3F1A06F40F0938082EA040333F47E1338
:1067400040F08D8014F40040D6D0C4F30540C2F36D
:1067500005429042CDE7B3F1407F6AD102F0FE439B
:10676000B3F1407F7BD182EA040535F47E1576D102
:1067700031462046FFF770FF002870D13F4B12F4DE
:106780007C1703EA02031BD0B3F1607FC2F3054715
:106790003FD13B49D3B243F000738B423DD003F16C
:1067A0007E43043B0F2B01D83649CD5C14F47C1F8B
:1067B000C4F3054333D1BD4214BF002001209BE741
:1067C000B3F1607F0DD12E49D3B243F000738B42F9
:1067D0001DD003F17E43043B0F2BDAD82A49CF5C4E
:1067E000D7E7B3F1707FE1D106F4E043B3F5005F82
:1067F00003D10127C6F302239F4006F4E043B3F51B
:10680000005FD3D10125C6F302218D40CEE71027CA
:10681000BFE7B3F1707FC9D1EFE71025C6E712F4E7
:106820007C1F01D1AB4218D022047FF565AFBB427B
:106830005FE7B3F1106F12D124F01F6020F47020D5
:1068400068B902F0FE43B3F1106F7FF455AF0F4803
:10685000104040F01060A042AEE701204CE700205D
:106860004AE700BF0002000600130006000400060D
:106870000009000600030006FF0000020000C07FC0
:106880000300000254360300543603000000FFF6F4
:1068900037B50D4D0C466B78022B12D12B78072B98
:1068A0000FD100230A460193014601AB281D12F0C7
:1068B00024FF20B9019BA34218BF6FF0930003B0DF
:1068C00030BD6FF08800FAE76C1100202DE9F84325
:1068D000884617461C4600F0E5F9054688BBD8F8FF
:1068E0000060B6F8009009F4E043B3F5804FB36858
:1068F00008BF27F0010737EA03031AD10CB3254B71
:1069000024F0FF029A421FD114F0FF0304D0224A60
:1069100043F00073934232D022464846F168FFF7B5
:10692000BBFE074668B9224648463169FFF7B4FE08
:1069300070BB6FF0840500233046C8F8003013F0B8
:10694000FDFF2846BDE8F883144B9A42DCD0A3F53E
:1069500088539A42D8D024F4FF7323F00103B3F193
:10696000062FD1D00E498A42CED00E4A9342CBD0C8
:1069700004F0FE43B3F1407F04D12304CCD56FF083
:106980008605D8E7B3F1A06FF7D0034B9C42C2E76E
:106990003D46D6E700030006FF0000020013000694
:1069A000000900060004000638B500F0FE43B3F10C
:1069B000407F04460D4602D06FF0860038BDFFF7D9
:1069C0004BFE0028FAD114F47C1F12D0C4F3054307
:1069D000032B137022D9284A2240B2F1607F3DD1A7
:1069E000264AE4B244F0007494422BD1102BE5D92E
:1069F000E2E7214B2340B3F1607F15D11F49E3B299
:106A000043F000738B4202D110231370D6E703F1D9
:106A10007E43043B0F2B04D9002313706FF08500D5
:106A2000CCE71749CB5CD3E7B3F1707FF4D101F425
:106A3000E043B3F5005FEFD10123C1F302218B40A6
:106A4000DBB2C5E704F17E44043C0F2CB4D80D4AF8
:106A5000125D9342B0D8142BB0D9DFE7B2F1707F4A
:106A6000AAD105F4E042B2F5005FA5D10122C5F339
:106A70000225AA40EDE700BF0000C07F030000022E
:106A8000543603005436030010B5114C23785807D0
:106A900044BF23F0040323702378990705D500F041
:106AA00099F8237823F00203237063781BB1002345
:106AB000084A636053600023082106486370FFF7AB
:106AC000BFFD2378DA0744BF23F00103237010BD14
:106AD0006C1100207011002038B51A4C62782378B0
:106AE000022A01D1072B11D0DD0712D52378980790
:106AF00007D400F067F82378054643F002032370BB
:106B000080B96278237882B15A0716D500252846C5
:106B100038BD12F0F0FD2378054643F001032370E1
:106B20000028E3D0FFF7B0FFF1E7D907ECD506491D
:106B300062604A6002226270E6E743F00403237059
:106B4000E4E700BF6C1100207011002000F140420A
:106B5000012A38B504460D460CD82821174B01FBF5
:106B600002331A7E022A02D15A69824215D06FF08E
:106B70008B001CE0012113F0BBFEC8B10F4B1A7E45
:106B8000022A02D15A69944207D093F84020022A7F
:106B9000EDD1DB6B9C42EAD1094B1A7E022A0AD165
:106BA000DA69511C07D000200132DA612B6038BD50
:106BB0006FF08700FBE76FF09600F8E77811002090
:106BC000A01100200122024B002083F850207047C2
:106BD0007811002070B501260325084C2046E66197
:106BE000257613F012FD04F12800666484F8405005
:106BF00013F00BFD002384F8503070BD7811002095
:106C0000F8B5264C064694F850300F46002B3BD082
:106C1000237E1BB3022B15D1E3699BB923798BB17A
:106C200094F840305BB325462B7E022B04D1EB69F0
:106C30005A1C1CBF0133EB61284613F0E6FC70B10F
:106C400000251AE094F84030E3B1022B1FD1636CA9
:106C5000EBB994F82C30D3B1114DE5E725462B7EE6
:106C6000C3B901232B763EB12C1BE41003F1CC33C6
:106C70005C4304F18044346000203D60F8BD04F1C1
:106C80002805ECE7064DEAE76FF08800D8E76FF0DB
:106C90008C00D5E76FF09600D2E700BF7811002096
:106CA000A011002038B50025084B0D6093F8503036
:106CB0000C4643B1FFF74AFF10F18C0F02D16FF081
:106CC0008700256038BD6FF08800FBE77811002051
:106CD00030B585B00DF10B05012200211D20009576
:106CE00003AB07F003F90446C8B92A4601211D2069
:106CF00007F058F9044690B90320FBF7C9FB70B1BF
:106D0000084D0949286812F064FD12F068FA12F083
:106D100067FA9DF80B200549286812F05AFD2046B5
:106D200005B030BD900D00206436030069360300C5
:106D3000014B186812F0DFBAE020002037B500F0F0
:106D4000E3FA002847D0254B186812F0CBFA08B1B7
:106D500001283ED18DF80700012200211D200DF1F0
:106D6000070307F0F3F80446B0B90320FBF790FBE4
:106D700070B11B4C1B49206812F02BFD12F02FFA4A
:106D800012F02EFA9DF807201749206812F021FD15
:106D9000FFF79EFF0446F0B10120FBF779FBD0B16D
:106DA0000F4D1249286812F014FD12F018FA12F073
:106DB00017FA23460E4A0F49286812F00AFD2046AA
:106DC000FBF7ACFB0C49286803B0BDE8304012F07B
:106DD00000BD0124E0E703B030BD00BFE02000208B
:106DE000900D002064360300843603009F360300B4
:106DF0009433030097330300733703007FB50368B0
:106E0000A94A23F47F4323F00703934200F00F8144
:106E100009D8A64A934238D002F5A022934200F046
:106E2000F58004B070BDA24A934200F0DB8102F10C
:106E300080629342F5D1B0F805001B28F1D10DF125
:106E40000B0300930122002103AB07F04FF8044627
:106E5000002840F07D819DF80B30002B40F095819B
:106E6000944B186812F0C6FA0320FBF711FB0028B8
:106E7000D7D0914C9149206812F0ABFC12F0AFF9D9
:106E800012F0AEF98E4920687CE18E4E304609F052
:106E90000DFC054618B3884C8B49206812F099FC0C
:106EA0008A49206812F095FC12F099F912F098F9CD
:106EB000874B884A009388496523206812F089FC33
:106EC00086492B46864A206812F083FC2846FBF749
:106ED00025FB8449206812F07CFC00BEFDE70221FE
:106EE000307809F01DFC044618B3734D76492868C4
:106EF00012F06FFC7549286812F06BFC12F06FF904
:106F000012F06EF9724B734A009373496A23286832
:106F100012F05FFC71492346714A286812F059FC4F
:106F20002046FBF7FBFA6F49286812F052FC00BEBE
:106F3000FDE7A022009003461146307809F0D0FB0F
:106F4000054618B35C4C6049206812F042FC5F496A
:106F5000206812F03EFC12F042F912F041F95C4B4D
:106F60005C4A00935C497323206812F032FC5B4951
:106F70002B465B4A206812F02CFC2846FBF7CEFA21
:106F80005849206812F025FC00BEFDE70221307848
:106F900009F0DAFB054618B3474C4B49206812F05C
:106FA00018FC4A49206812F014FC12F018F912F08B
:106FB00017F9474B474A009347497823206812F056
:106FC00008FC46492B46464A206812F002FC284637
:106FD000FBF7A4FA4349206812F0FBFB00BEFDE773
:106FE000414B186812F083F90320FBF751FA00288F
:106FF0003FF417AF304C3149206812F0EAFB12F031
:10700000EEF812F0EDF83949206824E10320FBF78F
:107010003FFA00283FF405AF274C2849206812F0BA
:10702000D8FB12F0DCF812F0DBF83149ECE7032072
:10703000FBF72EFA60B1204C2049206812F0C9FB02
:1070400012F0CDF812F0CCF82A49206812F0C1FBFA
:107050001C4C0221207809F063FB054600284BD028
:10706000154C1949206812F0B4FB1849206812F039
:10707000B0FB12F0B4F812F0B3F8154B154A0093B8
:1070800015498F23206812F0A4FB14492B46144A9B
:10709000206812F09EFB2846FBF740FA1149206851
:1070A00012F097FB00BEFDE7A0000601A000010062
:1070B000A0000A03E4200020900D002064360300A5
:1070C00029370300E2220020723703002033030037
:1070D0008C370300A4360300883303009733030082
:1070E00094330300AC330300E0200020E4360300B7
:1070F00001370300153703000221207809F024FB33
:10710000054600283FF48DAE5D4C5E49206812F0C4
:1071100060FB5D49206812F05CFB12F060F812F031
:107120005FF85A4B5A4A00935A499423206812F048
:1071300050FB59492B46594A206812F04AFB284611
:10714000FBF7ECF95649206812F043FB00BEFDE75F
:107150000120FBF79DF900283FF463AE484D5149EB
:10716000286812F036FB12F03AF812F039F84A4962
:1071700023464A4A286812F02CFB2046FBF7CEF93A
:107180004949286812F025FB4BE6012B14D1474BE7
:10719000186812F02CF90320FBF77AF900283FF465
:1071A00040AE374C4249206812F013FB12F017F83A
:1071B00012F016F83F4966E60120FBF769F900284E
:1071C0003FF42FAE2E4C3749206812F002FB12F02C
:1071D00006F812F005F89DF80B203749206812F0E8
:1071E000F8FA1EE6B0F805301D2B7FF41AAE0389BD
:1071F0000320DB0734D5FBF74BF960B1204C2C4959
:10720000206812F0E6FA11F0EAFF11F0E9FF2B49CD
:10721000206812F0DEFAFFF75BFD044600283FF419
:1072200000AE0120FBF734F900283FF4FAAD144D0D
:107230001C49286812F0CDFA11F0D1FF11F0D0FFEF
:1072400015492346154A286812F0C3FA2046FBF771
:1072500065F91549286804B0BDE8704012F0B9BA64
:10726000FBF716F900283FF4DCAD054C1049206807
:1072700012F0AFFA11F0B3FF11F0B2FF1049C3E6FC
:10728000900D002072370300203303008C37030079
:10729000A4360300883303009733030094330300BC
:1072A000AC3303009F36030073370300E420002053
:1072B00064360300333703003C3703005D370300B7
:1072C00074370300034B1B68834201D100F00AB8F6
:1072D000704700BFE02000200022014B1A80704759
:1072E000101F002008B51BF0C6FD4FF6FF71054AC0
:1072F00013888B421CBF01331380BDE808401BF08C
:10730000B5BD00BF101F002010B51BF0B4FD054A2D
:10731000148814B1631E012413801BF0A7FD2046BE
:1073200010BD00BF101F0020064B1B681A7A022AEE
:1073300004D812B11B68044A13607047032AF9D0BD
:10734000704700BFAC200020CC11002030B5204D8C
:10735000A1B00AAC0FCD0FC495E807000023CDE91A
:1073600001330393CDE90633CDE91D3308934FF480
:1073700080136D4684E80700009311AC0FCD0FC455
:10738000144B05AD2360144B16AC05930FCD0FC401
:10739000124B11A92360124B0AAA1B9320231C93A2
:1073A00001238DF875300F4B0F481F930F4BFEF7DD
:1073B0000DF804469DF877304FF4E130002B0CBFF8
:1073C0000321002111F04BFF204621B030BD00BF4A
:1073D000603A03003400035A010010003C00035AD5
:1073E0006B1F0020C02000208C120020D011002034
:1073F00029B9074B186803684BB1FEF70DBC01298A
:1074000005D1034B186803680BB112F0E3BB70475A
:10741000D420002008B504490448FEF7EFFCBDE87D
:107420000840FFF793BF00BFD8200020B41200200F
:10743000014812F0FCB900BF8C120020014B5A6ABF
:10744000186810478C120020014811F046BF00BF99
:107450007C3A0300014811F0C7BF00BF943A030013
:1074600030B503687E4A23F47F4323F00703934239
:1074700089B040F0F380062200211620794B06F0F7
:1074800065FD044618B3784D7849286812F0A1F9D3
:107490007749286812F09DF911F0A1FE11F0A0FEC5
:1074A000744B754A009375496C23286812F091F962
:1074B00073492346734A286812F08BF92046FBF77C
:1074C0002DF87149286812F084F900BEFDE70146E5
:1074D000082212206D4B06F039FD044618B3624DA8
:1074E0006249286812F075F96149286812F071F94B
:1074F00011F075FE11F074FE5E4B5F4A00935F4918
:107500007823286812F065F95D4923465D4A2868AA
:1075100012F05FF92046FBF701F85B49286812F08A
:1075200058F900BEFDE7014603221420584B06F02F
:107530000DFD054618B34C4C4C49206812F049F932
:107540004B49206812F045F911F049FE11F048FE50
:10755000484B494A009349498623206812F039F97B
:1075600047492B46474A206812F033F92846FAF774
:10757000D5FF4549206812F02CF900BEFDE70DF15A
:107580000F0104A809F004F9044618B3364D374931
:10759000286812F01EF93649286812F01AF911F01D
:1075A0001EFE11F01DFE334B334A009333499523E1
:1075B000286812F00EF932492346324A286812F040
:1075C00008F92046FAF7AAFF2F49286812F001F9B6
:1075D00000BEFDE7BDF8143001465BBAADF81830C7
:1075E0009DF8133008228DF81A30FF238DF81B30D8
:1075F000FE238DF81C309DF8123018208DF81D30B8
:10760000BDF810305BBAADF81E3006AB06F09EFC3C
:10761000054618B3144C1549206812F0DAF81449DD
:10762000206812F0D6F811F0DAFD11F0D9FD114BF7
:10763000114A00931149A523206812F0CAF8104995
:107640002B46104A206812F0C4F82846FAF766FF65
:107650000D49206812F0BDF800BEFDE709B030BD4D
:10766000A0000100543B0300900D0020723703007E
:1076700020330300143B0300AC3A030088330300BB
:107680009733030094330300AC3303004C3B0300F7
:10769000493B030053B94AB9002908BF00281CBF61
:1076A0004FF0FF314FF0FF3000F082B9ADF1080C20
:1076B0006DE904CE00F006F8DDF804E0DDE9022310
:1076C00004B070472DE9F04F099D0C46002B4DD1B9
:1076D0008A420F4684469646B2FA82F360D94BB18D
:1076E00002FA03FEC3F120029F4000FA03FC20FAD5
:1076F00002F217434FEA1E461FFA8EF44FEA1C426D
:10770000B7FBF6F106FB117701FB04F042EA0742F2
:10771000904208D91EEB020201F1FF3702D29042DB
:1077200000F231813946121A1FFA8CFCB2FBF6F0D6
:1077300006FB102200FB04F44CEA024C644508D915
:107740001EEB0C0C00F1FF3202D2644500F21E81E8
:10775000104640EA0140ACEB040C002125B12CFAA4
:1077600003F30022C5E90032BDE8F08F8B4205D952
:107770000DB1C5E9000100210846F5E7B3FA83F130
:1077800000294DD1A342C0F0F380904280F0F080F8
:10779000064623460846002DE6D0C5E90063E3E728
:1077A000002B40F0A3808A1A4FEA1E471FFA8EF67C
:1077B0000121B2FBF7F407FB14204FEA1C4242EA16
:1077C000004206FB04F090420FD91EEB020204F1C6
:1077D000FF382CBF4FF001094FF00009904203D948
:1077E000B9F1000F00F0CC804446121A1FFA8CFC4D
:1077F000B2FBF7F007FB102200FB06F64CEA024C46
:10780000664508D91EEB0C0C00F1FF3202D266452A
:1078100000F2B3801046ACEB060C40EA04409DE752
:10782000C1F120068B4004FA01FE22FA06F720FA85
:1078300006FCF4408A401F434EEA0C0300FA01FEA6
:107840004FEA17484FEA13491FFA87FCB4FBF8F0D8
:1078500008FB104449EA044400FB0CF9A1450ED989
:107860003C1900F1FF3A2CBF4FF0010B4FF0000B19
:10787000A14503D9BBF1000F00F08B805046A4EB6B
:1078800009041FFA83F9B4FBF8F308FB134403FB64
:107890000CFC49EA0444A44506D93C1903F1FF381D
:1078A00001D2A4457BD8434643EA0040A4EB0C0434
:1078B000A0FB02984445CC46434602D306D1CE45B0
:1078C00004D20138B9EB020C68EB0703002D6CD031
:1078D000BEEB0C0264EB030422FA01F304FA06F691
:1078E000CC4000211E43C5E900643DE702FA03FED7
:1078F000C3F1200104FA03F200FA03FCCC404FEA82
:107900001E4720FA01F11FFA8EF6B4FBF7F00A4386
:1079100007FB1044110C41EA044100FB06F48C42C1
:107920000ED91EEB010100F1FF382CBF4FF0010909
:107930004FF000098C4202D9B9F1000F2CD040461B
:10794000091B92B2B1FBF7F407FB141142EA0142A2
:1079500004FB06F1914207D91EEB020204F1FF3845
:1079600001D291421ED84446521A44EA004120E70F
:10797000861A64EB030301200DE7F44402384AE75A
:10798000023C724431E702397244CCE6F4440238D6
:10799000DFE602383C4472E702387144D0E7023B2C
:1079A0003C4481E7023C7244DEE72946DCE600BF46
:1079B000704700BF08B5064B044613B10021AFF372
:1079C0000080044B1B6803B19847204611F042FF2A
:1079D00000000000F4130020002310B5044683606B
:1079E000818119464366C28108228361C0E9003360
:1079F000C0E904335C3013F088F80D4B24626362F5
:107A00000C4BA3620C4BE3620C4B23630C4B9C426C
:107A100006D003F16802944202D0D0339C4205D1D3
:107A200004F15800BDE8104013F077B810BD00BF56
:107A300085AA0200A7AA0200DFAA020003AB020087
:107A4000BC120020024A0349034812F0FDBF00BFE8
:107A5000E820002077AD0200F820002041680C4BA0
:107A6000994210B5044601D013F085F9A168094B7D
:107A7000994202D0204613F07EF9E168064B994204
:107A800004D02046BDE8104013F075B910BD00BF0A
:107A9000BC120020241300208C13002010B50B4BC7
:107AA00004210B4C0B4A20461A600022FFF794FF7A
:107AB00004F1680001220921FFF78EFF04F1D000D4
:107AC00002221221BDE81040FFF786BFF413002008
:107AD000BC120020457A0100014813F01FB800BF16
